{
  "contractName": "Renting",
  "abi": [
    {
      "constant": true,
      "inputs": [
        {
          "name": "",
          "type": "uint256"
        }
      ],
      "name": "cars",
      "outputs": [
        {
          "name": "owner",
          "type": "address"
        },
        {
          "name": "rentedBy",
          "type": "address"
        },
        {
          "name": "description",
          "type": "string"
        },
        {
          "name": "price",
          "type": "uint256"
        },
        {
          "name": "rentingTime",
          "type": "uint256"
        },
        {
          "name": "available",
          "type": "bool"
        }
      ],
      "payable": false,
      "stateMutability": "view",
      "type": "function"
    },
    {
      "constant": true,
      "inputs": [],
      "name": "getNumCars",
      "outputs": [
        {
          "name": "",
          "type": "uint256"
        }
      ],
      "payable": false,
      "stateMutability": "view",
      "type": "function"
    },
    {
      "constant": true,
      "inputs": [
        {
          "name": "pos",
          "type": "uint256"
        }
      ],
      "name": "getCar",
      "outputs": [
        {
          "name": "",
          "type": "address"
        },
        {
          "name": "",
          "type": "string"
        },
        {
          "name": "",
          "type": "uint256"
        },
        {
          "name": "",
          "type": "bool"
        },
        {
          "name": "",
          "type": "address"
        }
      ],
      "payable": false,
      "stateMutability": "view",
      "type": "function"
    },
    {
      "constant": false,
      "inputs": [
        {
          "name": "_description",
          "type": "string"
        },
        {
          "name": "_price",
          "type": "uint256"
        }
      ],
      "name": "addCar",
      "outputs": [
        {
          "name": "",
          "type": "bool"
        }
      ],
      "payable": false,
      "stateMutability": "nonpayable",
      "type": "function"
    },
    {
      "constant": false,
      "inputs": [
        {
          "name": "pos",
          "type": "uint256"
        }
      ],
      "name": "rentCar",
      "outputs": [
        {
          "name": "",
          "type": "bool"
        }
      ],
      "payable": false,
      "stateMutability": "nonpayable",
      "type": "function"
    },
    {
      "constant": false,
      "inputs": [
        {
          "name": "pos",
          "type": "uint256"
        }
      ],
      "name": "freeCar",
      "outputs": [
        {
          "name": "",
          "type": "bool"
        }
      ],
      "payable": true,
      "stateMutability": "payable",
      "type": "function"
    }
  ],
  "bytecode": "0x608060405234801561001057600080fd5b50610c52806100206000396000f3fe608060405260043610610078576000357c0100000000000000000000000000000000000000000000000000000000900463ffffffff1680635e8be1901461007d578063965ac0c5146101a9578063cd703ed714610293578063cde98352146102be578063e1e8aab714610304578063f7746e3614610357575b600080fd5b34801561008957600080fd5b506100b6600480360360208110156100a057600080fd5b810190808035906020019092919050505061048a565b604051808673ffffffffffffffffffffffffffffffffffffffff1673ffffffffffffffffffffffffffffffffffffffff16815260200180602001858152602001841515151581526020018373ffffffffffffffffffffffffffffffffffffffff1673ffffffffffffffffffffffffffffffffffffffff168152602001828103825286818151815260200191508051906020019080838360005b8381101561016a57808201518184015260208101905061014f565b50505050905090810190601f1680156101975780820380516001836020036101000a031916815260200191505b50965050505050505060405180910390f35b3480156101b557600080fd5b50610279600480360360408110156101cc57600080fd5b81019080803590602001906401000000008111156101e957600080fd5b8201836020820111156101fb57600080fd5b8035906020019184600183028401116401000000008311171561021d57600080fd5b91908080601f016020809104026020016040519081016040528093929190818152602001838380828437600081840152601f19601f820116905080830192505050505050509192919290803590602001909291905050506105c8565b604051808215151515815260200191505060405180910390f35b34801561029f57600080fd5b506102a8610754565b6040518082815260200191505060405180910390f35b6102ea600480360360208110156102d457600080fd5b8101908080359060200190929190505050610760565b604051808215151515815260200191505060405180910390f35b34801561031057600080fd5b5061033d6004803603602081101561032757600080fd5b8101908080359060200190929190505050610913565b604051808215151515815260200191505060405180910390f35b34801561036357600080fd5b506103906004803603602081101561037a57600080fd5b81019080803590602001909291905050506109ec565b604051808773ffffffffffffffffffffffffffffffffffffffff1673ffffffffffffffffffffffffffffffffffffffff1681526020018673ffffffffffffffffffffffffffffffffffffffff1673ffffffffffffffffffffffffffffffffffffffff1681526020018060200185815260200184815260200183151515158152602001828103825286818151815260200191508051906020019080838360005b8381101561044a57808201518184015260208101905061042f565b50505050905090810190601f1680156104775780820380516001836020036101000a031916815260200191505b5097505050505050505060405180910390f35b600060606000806000806000878154811015156104a357fe5b906000526020600020906006020190508060000160009054906101000a900473ffffffffffffffffffffffffffffffffffffffff168160020182600301548360050160009054906101000a900460ff168460010160009054906101000a900473ffffffffffffffffffffffffffffffffffffffff16838054600181600116156101000203166002900480601f0160208091040260200160405190810160405280929190818152602001828054600181600116156101000203166002900480156105ad5780601f10610582576101008083540402835291602001916105ad565b820191906000526020600020905b81548152906001019060200180831161059057829003601f168201915b50505050509350955095509550955095505091939590929450565b60006105d2610b1c565b33816000019073ffffffffffffffffffffffffffffffffffffffff16908173ffffffffffffffffffffffffffffffffffffffff16815250508381604001819052508281606001818152505060018160a001901515908115158152505060008160800181815250506000819080600181540180825580915050906001820390600052602060002090600602016000909192909190915060008201518160000160006101000a81548173ffffffffffffffffffffffffffffffffffffffff021916908373ffffffffffffffffffffffffffffffffffffffff16021790555060208201518160010160006101000a81548173ffffffffffffffffffffffffffffffffffffffff021916908373ffffffffffffffffffffffffffffffffffffffff1602179055506040820151816002019080519060200190610711929190610b81565b50606082015181600301556080820151816004015560a08201518160050160006101000a81548160ff021916908315150217905550505050600191505092915050565b60008080549050905090565b600080151560008381548110151561077457fe5b906000526020600020906006020160050160009054906101000a900460ff16151514801561080d57503373ffffffffffffffffffffffffffffffffffffffff166000838154811015156107c357fe5b906000526020600020906006020160010160009054906101000a900473ffffffffffffffffffffffffffffffffffffffff1673ffffffffffffffffffffffffffffffffffffffff16145b1561090957600160008381548110151561082357fe5b906000526020600020906006020160050160006101000a81548160ff0219169083151502179055506000808381548110151561085b57fe5b906000526020600020906006020160040154420390503373ffffffffffffffffffffffffffffffffffffffff166108fc60008581548110151561089a57fe5b90600052602060002090600602016003015483029081150290604051600060405180830381858888f193505050501580156108d9573d6000803e3d6000fd5b50600080848154811015156108ea57fe5b906000526020600020906006020160040181905550600191505061090e565b600090505b919050565b60006001151560008381548110151561092857fe5b906000526020600020906006020160050160009054906101000a900460ff16151514156109e2576000808381548110151561095f57fe5b9060005260206000209060060201905060008160050160006101000a81548160ff021916908315150217905550338160010160006101000a81548173ffffffffffffffffffffffffffffffffffffffff021916908373ffffffffffffffffffffffffffffffffffffffff16021790555042816004018190555060019150506109e7565b600090505b919050565b6000818154811015156109fb57fe5b90600052602060002090600602016000915090508060000160009054906101000a900473ffffffffffffffffffffffffffffffffffffffff16908060010160009054906101000a900473ffffffffffffffffffffffffffffffffffffffff1690806002018054600181600116156101000203166002900480601f016020809104026020016040519081016040528092919081815260200182805460018160011615610100020316600290048015610af35780601f10610ac857610100808354040283529160200191610af3565b820191906000526020600020905b815481529060010190602001808311610ad657829003601f168201915b5050505050908060030154908060040154908060050160009054906101000a900460ff16905086565b60c060405190810160405280600073ffffffffffffffffffffffffffffffffffffffff168152602001600073ffffffffffffffffffffffffffffffffffffffff1681526020016060815260200160008152602001600081526020016000151581525090565b828054600181600116156101000203166002900490600052602060002090601f016020900481019282601f10610bc257805160ff1916838001178555610bf0565b82800160010185558215610bf0579182015b82811115610bef578251825591602001919060010190610bd4565b5b509050610bfd9190610c01565b5090565b610c2391905b80821115610c1f576000816000905550600101610c07565b5090565b9056fea165627a7a72305820156cf995dcd9c6cdb9375eff7533d847f58252bfc67c80a8f0b6dda1b142dc920029",
  "source": "pragma solidity >=0.4.21 <0.6.0;\n\ncontract Renting {\n    struct Car {\n        address owner;\n        address rentedBy;\n        string description;\n        uint price;\n        uint rentingTime;\n        bool available;\n    }\n\n    Car[] public cars;\n\n    function getNumCars() public view returns (uint) {\n        return cars.length;\n    }\n\n    // returns owner address, car description, price, available\n    function getCar(uint pos) public view returns (address, string memory, uint, bool, address) {\n        Car storage c = cars[pos];\n        return (c.owner, c.description, c.price, c.available, c.rentedBy);\n    }\n\n    function addCar(string memory _description, uint _price) public returns (bool) {\n        Car memory car;\n        car.owner = msg.sender;\n        car.description = _description;\n        car.price = _price;\n        car.available = true;\n        car.rentingTime = 0;\n\n        cars.push(car);\n\n        return true;\n    }\n\n    function rentCar(uint pos) public returns (bool) {\n        if (cars[pos].available == true) {\n            Car storage c = cars[pos];\n            c.available = false;\n            c.rentedBy = msg.sender;\n            c.rentingTime = now;\n            return true;\n        }\n\n        return false;\n    }\n\n    function freeCar(uint pos) public payable returns (bool) {\n        if (cars[pos].available == false && cars[pos].rentedBy == msg.sender) {\n            cars[pos].available = true;\n            uint time = now - cars[pos].rentingTime;\n\n            //address(cars[pos].owner).transfer(time * cars[pos].price);\n            msg.sender.transfer(time * cars[pos].price);\n\n            cars[pos].rentingTime = 0;\n            return true;\n        }\n        return false;\n    }\n}",
  "sourcePath": "/home/alin/programming/RentCarBlockchain/contracts/Renting.sol",
  "compiler": {
    "name": "solc",
    "version": "0.5.0+commit.1d4f565a.Emscripten.clang"
  },
  "schemaVersion": "3.0.3",
  "updatedAt": "2019-04-06T20:18:37.632Z",
  "devdoc": {
    "methods": {}
  },
  "userdoc": {
    "methods": {}
  }
}