{
  "contractName": "Renting",
  "abi": [
    {
      "constant": true,
      "inputs": [
        {
          "name": "",
          "type": "uint256"
        }
      ],
      "name": "cars",
      "outputs": [
        {
          "name": "owner",
          "type": "address"
        },
        {
          "name": "rentedBy",
          "type": "address"
        },
        {
          "name": "description",
          "type": "string"
        },
        {
          "name": "price",
          "type": "uint256"
        },
        {
          "name": "rentingTime",
          "type": "uint256"
        },
        {
          "name": "available",
          "type": "bool"
        }
      ],
      "payable": false,
      "stateMutability": "view",
      "type": "function"
    },
    {
      "anonymous": false,
      "inputs": [],
      "name": "CreatedCarEvent",
      "type": "event"
    },
    {
      "anonymous": false,
      "inputs": [],
      "name": "CreatedRentEvent",
      "type": "event"
    },
    {
      "anonymous": false,
      "inputs": [],
      "name": "CreatedFreeEvent",
      "type": "event"
    },
    {
      "anonymous": false,
      "inputs": [],
      "name": "CreatedRemoveEvent",
      "type": "event"
    },
    {
      "constant": true,
      "inputs": [],
      "name": "getNumCars",
      "outputs": [
        {
          "name": "",
          "type": "uint256"
        }
      ],
      "payable": false,
      "stateMutability": "view",
      "type": "function"
    },
    {
      "constant": true,
      "inputs": [
        {
          "name": "pos",
          "type": "uint256"
        }
      ],
      "name": "getCar",
      "outputs": [
        {
          "name": "",
          "type": "uint256"
        },
        {
          "name": "",
          "type": "address"
        },
        {
          "name": "",
          "type": "string"
        },
        {
          "name": "",
          "type": "uint256"
        },
        {
          "name": "",
          "type": "bool"
        },
        {
          "name": "",
          "type": "address"
        }
      ],
      "payable": false,
      "stateMutability": "view",
      "type": "function"
    },
    {
      "constant": false,
      "inputs": [
        {
          "name": "_description",
          "type": "string"
        },
        {
          "name": "_price",
          "type": "uint256"
        }
      ],
      "name": "addCar",
      "outputs": [
        {
          "name": "",
          "type": "bool"
        }
      ],
      "payable": false,
      "stateMutability": "nonpayable",
      "type": "function"
    },
    {
      "constant": false,
      "inputs": [
        {
          "name": "pos",
          "type": "uint256"
        }
      ],
      "name": "rentCar",
      "outputs": [
        {
          "name": "",
          "type": "bool"
        }
      ],
      "payable": false,
      "stateMutability": "nonpayable",
      "type": "function"
    },
    {
      "constant": false,
      "inputs": [
        {
          "name": "pos",
          "type": "uint256"
        }
      ],
      "name": "freeCar",
      "outputs": [
        {
          "name": "",
          "type": "bool"
        }
      ],
      "payable": true,
      "stateMutability": "payable",
      "type": "function"
    },
    {
      "constant": false,
      "inputs": [],
      "name": "withdrawEarnings",
      "outputs": [],
      "payable": true,
      "stateMutability": "payable",
      "type": "function"
    },
    {
      "constant": false,
      "inputs": [
        {
          "name": "pos",
          "type": "uint256"
        }
      ],
      "name": "removeCar",
      "outputs": [
        {
          "name": "",
          "type": "bool"
        }
      ],
      "payable": false,
      "stateMutability": "nonpayable",
      "type": "function"
    }
  ],
  "bytecode": "0x608060405234801561001057600080fd5b5061121f806100206000396000f3fe60806040526004361061008e576000357c0100000000000000000000000000000000000000000000000000000000900463ffffffff1680635e8be190146100935780636a38ddb3146101c6578063965ac0c514610219578063b73c6ce914610303578063cd703ed71461030d578063cde9835214610338578063e1e8aab71461037e578063f7746e36146103d1575b600080fd5b34801561009f57600080fd5b506100cc600480360360208110156100b657600080fd5b8101908080359060200190929190505050610504565b604051808781526020018673ffffffffffffffffffffffffffffffffffffffff1673ffffffffffffffffffffffffffffffffffffffff16815260200180602001858152602001841515151581526020018373ffffffffffffffffffffffffffffffffffffffff1673ffffffffffffffffffffffffffffffffffffffff168152602001828103825286818151815260200191508051906020019080838360005b8381101561018657808201518184015260208101905061016b565b50505050905090810190601f1680156101b35780820380516001836020036101000a031916815260200191505b5097505050505050505060405180910390f35b3480156101d257600080fd5b506101ff600480360360208110156101e957600080fd5b8101908080359060200190929190505050610649565b604051808215151515815260200191505060405180910390f35b34801561022557600080fd5b506102e96004803603604081101561023c57600080fd5b810190808035906020019064010000000081111561025957600080fd5b82018360208201111561026b57600080fd5b8035906020019184600183028401116401000000008311171561028d57600080fd5b91908080601f016020809104026020016040519081016040528093929190818152602001838380828437600081840152601f19601f820116905080830192505050505050509192919290803590602001909291905050506108c6565b604051808215151515815260200191505060405180910390f35b61030b610a7e565b005b34801561031957600080fd5b50610322610ac7565b6040518082815260200191505060405180910390f35b6103646004803603602081101561034e57600080fd5b8101908080359060200190929190505050610ad3565b604051808215151515815260200191505060405180910390f35b34801561038a57600080fd5b506103b7600480360360208110156103a157600080fd5b8101908080359060200190929190505050610c97565b604051808215151515815260200191505060405180910390f35b3480156103dd57600080fd5b5061040a600480360360208110156103f457600080fd5b8101908080359060200190929190505050610e17565b604051808773ffffffffffffffffffffffffffffffffffffffff1673ffffffffffffffffffffffffffffffffffffffff1681526020018673ffffffffffffffffffffffffffffffffffffffff1673ffffffffffffffffffffffffffffffffffffffff1681526020018060200185815260200184815260200183151515158152602001828103825286818151815260200191508051906020019080838360005b838110156104c45780820151818401526020810190506104a9565b50505050905090810190601f1680156104f15780820380516001836020036101000a031916815260200191505b5097505050505050505060405180910390f35b600080606060008060008060008881548110151561051e57fe5b90600052602060002090600602019050878160000160009054906101000a900473ffffffffffffffffffffffffffffffffffffffff168260020183600301548460050160009054906101000a900460ff168560010160009054906101000a900473ffffffffffffffffffffffffffffffffffffffff16849450838054600181600116156101000203166002900480601f01602080910402602001604051908101604052809291908181526020018280546001816001161561010002031660029004801561062c5780601f106106015761010080835404028352916020019161062c565b820191906000526020600020905b81548152906001019060200180831161060f57829003601f168201915b505050505093509650965096509650965096505091939550919395565b600080805490508210151561066157600090506108c1565b60008290505b6001600080549050038110156107fb5760006001820181548110151561068957fe5b90600052602060002090600602016000828154811015156106a657fe5b90600052602060002090600602016000820160009054906101000a900473ffffffffffffffffffffffffffffffffffffffff168160000160006101000a81548173ffffffffffffffffffffffffffffffffffffffff021916908373ffffffffffffffffffffffffffffffffffffffff1602179055506001820160009054906101000a900473ffffffffffffffffffffffffffffffffffffffff168160010160006101000a81548173ffffffffffffffffffffffffffffffffffffffff021916908373ffffffffffffffffffffffffffffffffffffffff160217905550600282018160020190805460018160011615610100020316600290046107a9929190610f47565b5060038201548160030155600482015481600401556005820160009054906101000a900460ff168160050160006101000a81548160ff0219169083151502179055509050508080600101915050610667565b50600060016000805490500381548110151561081357fe5b9060005260206000209060060201600080820160006101000a81549073ffffffffffffffffffffffffffffffffffffffff02191690556001820160006101000a81549073ffffffffffffffffffffffffffffffffffffffff02191690556002820160006108809190610fce565b600382016000905560048201600090556005820160006101000a81549060ff0219169055505060008054809190600190036108bb9190611016565b50600190505b919050565b60006108d0611048565b7f6c2777d27cad67b3a8219fd2368751fdf588e4f228358e5ea6093bfeb475cbc060405160405180910390a133816000019073ffffffffffffffffffffffffffffffffffffffff16908173ffffffffffffffffffffffffffffffffffffffff16815250508381604001819052508281606001818152505060018160a001901515908115158152505060008160800181815250506000819080600181540180825580915050906001820390600052602060002090600602016000909192909190915060008201518160000160006101000a81548173ffffffffffffffffffffffffffffffffffffffff021916908373ffffffffffffffffffffffffffffffffffffffff16021790555060208201518160010160006101000a81548173ffffffffffffffffffffffffffffffffffffffff021916908373ffffffffffffffffffffffffffffffffffffffff1602179055506040820151816002019080519060200190610a3b9291906110ad565b50606082015181600301556080820151816004015560a08201518160050160006101000a81548160ff021916908315150217905550505050600191505092915050565b3373ffffffffffffffffffffffffffffffffffffffff166108fc349081150290604051600060405180830381858888f19350505050158015610ac4573d6000803e3d6000fd5b50565b60008080549050905090565b60003373ffffffffffffffffffffffffffffffffffffffff16600083815481101515610afb57fe5b906000526020600020906006020160010160009054906101000a900473ffffffffffffffffffffffffffffffffffffffff1673ffffffffffffffffffffffffffffffffffffffff16141515610b4f57600080fd5b60001515600083815481101515610b6257fe5b906000526020600020906006020160050160009054906101000a900460ff1615151415610c8d5760008083815481101515610b9957fe5b9060005260206000209060060201905060018160050160006101000a81548160ff021916908315150217905550600083815481101515610bd557fe5b906000526020600020906006020160000160009054906101000a900473ffffffffffffffffffffffffffffffffffffffff1673ffffffffffffffffffffffffffffffffffffffff166108fc349081150290604051600060405180830381858888f19350505050158015610c4c573d6000803e3d6000fd5b50600081600401819055507fa9b43d6eeff7d8330a0ce63cf385e51e3d60a7603607244b067dcff3d810eba860405160405180910390a16001915050610c92565b600090505b919050565b60003373ffffffffffffffffffffffffffffffffffffffff16600083815481101515610cbf57fe5b906000526020600020906006020160000160009054906101000a900473ffffffffffffffffffffffffffffffffffffffff1673ffffffffffffffffffffffffffffffffffffffff1614151515610d1457600080fd5b60011515600083815481101515610d2757fe5b906000526020600020906006020160050160009054906101000a900460ff1615151415610e0d5760008083815481101515610d5e57fe5b9060005260206000209060060201905060008160050160006101000a81548160ff021916908315150217905550338160010160006101000a81548173ffffffffffffffffffffffffffffffffffffffff021916908373ffffffffffffffffffffffffffffffffffffffff1602179055504281600401819055507ffc18d4ecf81ee2447943bcee29d252e91361d81fb5dd02e84d0099003fa5760e60405160405180910390a16001915050610e12565b600090505b919050565b600081815481101515610e2657fe5b90600052602060002090600602016000915090508060000160009054906101000a900473ffffffffffffffffffffffffffffffffffffffff16908060010160009054906101000a900473ffffffffffffffffffffffffffffffffffffffff1690806002018054600181600116156101000203166002900480601f016020809104026020016040519081016040528092919081815260200182805460018160011615610100020316600290048015610f1e5780601f10610ef357610100808354040283529160200191610f1e565b820191906000526020600020905b815481529060010190602001808311610f0157829003601f168201915b5050505050908060030154908060040154908060050160009054906101000a900460ff16905086565b828054600181600116156101000203166002900490600052602060002090601f016020900481019282601f10610f805780548555610fbd565b82800160010185558215610fbd57600052602060002091601f016020900482015b82811115610fbc578254825591600101919060010190610fa1565b5b509050610fca919061112d565b5090565b50805460018160011615610100020316600290046000825580601f10610ff45750611013565b601f016020900490600052602060002090810190611012919061112d565b5b50565b815481835581811115611043576006028160060283600052602060002091820191016110429190611152565b5b505050565b60c060405190810160405280600073ffffffffffffffffffffffffffffffffffffffff168152602001600073ffffffffffffffffffffffffffffffffffffffff1681526020016060815260200160008152602001600081526020016000151581525090565b828054600181600116156101000203166002900490600052602060002090601f016020900481019282601f106110ee57805160ff191683800117855561111c565b8280016001018555821561111c579182015b8281111561111b578251825591602001919060010190611100565b5b509050611129919061112d565b5090565b61114f91905b8082111561114b576000816000905550600101611133565b5090565b90565b6111f091905b808211156111ec57600080820160006101000a81549073ffffffffffffffffffffffffffffffffffffffff02191690556001820160006101000a81549073ffffffffffffffffffffffffffffffffffffffff02191690556002820160006111bf9190610fce565b600382016000905560048201600090556005820160006101000a81549060ff021916905550600601611158565b5090565b9056fea165627a7a723058203a45b8d9c8db86e11f1a797f3f1e1a61da3e961afabfa367b93821348aacc2dc0029",
  "source": "pragma solidity >=0.4.21 <0.6.0;\n\ncontract Renting {\n    struct Car {\n        address payable owner;\n        address rentedBy;\n        string description;\n        uint price;\n        uint rentingTime;\n        bool available;\n    }\n\n    Car[] public cars;\n\n    event CreatedCarEvent();\n    event CreatedRentEvent();\n    event CreatedFreeEvent();\n    event CreatedRemoveEvent();\n\n    function getNumCars() public view returns (uint) {\n        return cars.length;\n    }\n\n    // returns owner address, car description, price, available\n    function getCar(uint pos) public view returns (uint, address, string memory, uint, bool, address) {\n        Car storage c = cars[pos];\n        return (pos, c.owner, c.description, c.price, c.available, c.rentedBy);\n    }\n\n    function addCar(string memory _description, uint _price) public returns (bool) {\n        Car memory car;\n        emit CreatedCarEvent();\n\n        car.owner = msg.sender;\n        car.description = _description;\n        car.price = _price;\n        car.available = true;\n        car.rentingTime = 0;\n\n        cars.push(car);\n\n        return true;\n    }\n\n    function rentCar(uint pos) public returns (bool) {\n        require(cars[pos].owner != msg.sender);\n        if (cars[pos].available == true) {\n            Car storage c = cars[pos];\n            c.available = false;\n            c.rentedBy = msg.sender;\n            c.rentingTime = now;\n            emit CreatedRentEvent();\n            return true;\n        }\n\n        return false;\n    }\n\n    function freeCar(uint pos) public payable returns (bool) {\n        require(cars[pos].rentedBy == msg.sender);\n        if (cars[pos].available == false) {\n            Car storage c = cars[pos];\n            c.available = true;\n\n            //uint amount = 10 * (10 ** 17);\n            cars[pos].owner.transfer(msg.value);\n\n            c.rentingTime = 0;\n            emit CreatedFreeEvent();\n            return true;\n        }\n        return false;\n    }\n\n    function withdrawEarnings() public payable {\n        msg.sender.transfer(msg.value);\n    }\n\n    function removeCar(uint pos) public returns (bool) {\n        if (pos >= cars.length) {\n            return false;\n        }\n\n        for (uint i = pos; i < cars.length - 1; i++){\n            cars[i] = cars[i+1];\n        }\n\n        delete cars[cars.length - 1];\n        cars.length--;\n\n        return true;\n    }\n}",
  "sourcePath": "/home/alin/programming/RentCarBlockchain/contracts/Renting.sol",
  "compiler": {
    "name": "solc",
    "version": "0.5.0+commit.1d4f565a.Emscripten.clang"
  },
  "schemaVersion": "3.0.3",
  "updatedAt": "2019-05-02T16:57:18.965Z",
  "devdoc": {
    "methods": {}
  },
  "userdoc": {
    "methods": {}
  }
}