{
  "contractName": "Renting",
  "abi": [
    {
      "constant": true,
      "inputs": [
        {
          "name": "",
          "type": "uint256"
        }
      ],
      "name": "cars",
      "outputs": [
        {
          "name": "owner",
          "type": "address"
        },
        {
          "name": "rentedBy",
          "type": "address"
        },
        {
          "name": "description",
          "type": "string"
        },
        {
          "name": "price",
          "type": "uint256"
        },
        {
          "name": "rentingTime",
          "type": "uint256"
        },
        {
          "name": "available",
          "type": "bool"
        }
      ],
      "payable": false,
      "stateMutability": "view",
      "type": "function",
      "signature": "0xf7746e36"
    },
    {
      "anonymous": false,
      "inputs": [],
      "name": "CreatedCarEvent",
      "type": "event",
      "signature": "0x6c2777d27cad67b3a8219fd2368751fdf588e4f228358e5ea6093bfeb475cbc0"
    },
    {
      "anonymous": false,
      "inputs": [],
      "name": "CreatedRentEvent",
      "type": "event",
      "signature": "0xfc18d4ecf81ee2447943bcee29d252e91361d81fb5dd02e84d0099003fa5760e"
    },
    {
      "constant": true,
      "inputs": [],
      "name": "getNumCars",
      "outputs": [
        {
          "name": "",
          "type": "uint256"
        }
      ],
      "payable": false,
      "stateMutability": "view",
      "type": "function",
      "signature": "0xcd703ed7"
    },
    {
      "constant": true,
      "inputs": [
        {
          "name": "pos",
          "type": "uint256"
        }
      ],
      "name": "getCar",
      "outputs": [
        {
          "name": "",
          "type": "address"
        },
        {
          "name": "",
          "type": "string"
        },
        {
          "name": "",
          "type": "uint256"
        },
        {
          "name": "",
          "type": "bool"
        },
        {
          "name": "",
          "type": "address"
        }
      ],
      "payable": false,
      "stateMutability": "view",
      "type": "function",
      "signature": "0x5e8be190"
    },
    {
      "constant": false,
      "inputs": [
        {
          "name": "_description",
          "type": "string"
        },
        {
          "name": "_price",
          "type": "uint256"
        }
      ],
      "name": "addCar",
      "outputs": [
        {
          "name": "",
          "type": "bool"
        }
      ],
      "payable": false,
      "stateMutability": "nonpayable",
      "type": "function",
      "signature": "0x965ac0c5"
    },
    {
      "constant": false,
      "inputs": [
        {
          "name": "pos",
          "type": "uint256"
        }
      ],
      "name": "rentCar",
      "outputs": [
        {
          "name": "",
          "type": "bool"
        }
      ],
      "payable": false,
      "stateMutability": "nonpayable",
      "type": "function",
      "signature": "0xe1e8aab7"
    },
    {
      "constant": false,
      "inputs": [
        {
          "name": "pos",
          "type": "uint256"
        }
      ],
      "name": "freeCar",
      "outputs": [
        {
          "name": "",
          "type": "bool"
        }
      ],
      "payable": true,
      "stateMutability": "payable",
      "type": "function",
      "signature": "0xcde98352"
    }
  ],
  "bytecode": "0x608060405234801561001057600080fd5b50610caa806100206000396000f3fe608060405260043610610078576000357c0100000000000000000000000000000000000000000000000000000000900463ffffffff1680635e8be1901461007d578063965ac0c5146101a9578063cd703ed714610293578063cde98352146102be578063e1e8aab714610304578063f7746e3614610357575b600080fd5b34801561008957600080fd5b506100b6600480360360208110156100a057600080fd5b810190808035906020019092919050505061048a565b604051808673ffffffffffffffffffffffffffffffffffffffff1673ffffffffffffffffffffffffffffffffffffffff16815260200180602001858152602001841515151581526020018373ffffffffffffffffffffffffffffffffffffffff1673ffffffffffffffffffffffffffffffffffffffff168152602001828103825286818151815260200191508051906020019080838360005b8381101561016a57808201518184015260208101905061014f565b50505050905090810190601f1680156101975780820380516001836020036101000a031916815260200191505b50965050505050505060405180910390f35b3480156101b557600080fd5b50610279600480360360408110156101cc57600080fd5b81019080803590602001906401000000008111156101e957600080fd5b8201836020820111156101fb57600080fd5b8035906020019184600183028401116401000000008311171561021d57600080fd5b91908080601f016020809104026020016040519081016040528093929190818152602001838380828437600081840152601f19601f820116905080830192505050505050509192919290803590602001909291905050506105c8565b604051808215151515815260200191505060405180910390f35b34801561029f57600080fd5b506102a8610780565b6040518082815260200191505060405180910390f35b6102ea600480360360208110156102d457600080fd5b810190808035906020019092919050505061078c565b604051808215151515815260200191505060405180910390f35b34801561031057600080fd5b5061033d6004803603602081101561032757600080fd5b810190808035906020019092919050505061093f565b604051808215151515815260200191505060405180910390f35b34801561036357600080fd5b506103906004803603602081101561037a57600080fd5b8101908080359060200190929190505050610a44565b604051808773ffffffffffffffffffffffffffffffffffffffff1673ffffffffffffffffffffffffffffffffffffffff1681526020018673ffffffffffffffffffffffffffffffffffffffff1673ffffffffffffffffffffffffffffffffffffffff1681526020018060200185815260200184815260200183151515158152602001828103825286818151815260200191508051906020019080838360005b8381101561044a57808201518184015260208101905061042f565b50505050905090810190601f1680156104775780820380516001836020036101000a031916815260200191505b5097505050505050505060405180910390f35b600060606000806000806000878154811015156104a357fe5b906000526020600020906006020190508060000160009054906101000a900473ffffffffffffffffffffffffffffffffffffffff168160020182600301548360050160009054906101000a900460ff168460010160009054906101000a900473ffffffffffffffffffffffffffffffffffffffff16838054600181600116156101000203166002900480601f0160208091040260200160405190810160405280929190818152602001828054600181600116156101000203166002900480156105ad5780601f10610582576101008083540402835291602001916105ad565b820191906000526020600020905b81548152906001019060200180831161059057829003601f168201915b50505050509350955095509550955095505091939590929450565b60006105d2610b74565b33816000019073ffffffffffffffffffffffffffffffffffffffff16908173ffffffffffffffffffffffffffffffffffffffff16815250508381604001819052508281606001818152505060018160a001901515908115158152505060008160800181815250506000819080600181540180825580915050906001820390600052602060002090600602016000909192909190915060008201518160000160006101000a81548173ffffffffffffffffffffffffffffffffffffffff021916908373ffffffffffffffffffffffffffffffffffffffff16021790555060208201518160010160006101000a81548173ffffffffffffffffffffffffffffffffffffffff021916908373ffffffffffffffffffffffffffffffffffffffff1602179055506040820151816002019080519060200190610711929190610bd9565b50606082015181600301556080820151816004015560a08201518160050160006101000a81548160ff0219169083151502179055505050507f6c2777d27cad67b3a8219fd2368751fdf588e4f228358e5ea6093bfeb475cbc060405160405180910390a1600191505092915050565b60008080549050905090565b60008015156000838154811015156107a057fe5b906000526020600020906006020160050160009054906101000a900460ff16151514801561083957503373ffffffffffffffffffffffffffffffffffffffff166000838154811015156107ef57fe5b906000526020600020906006020160010160009054906101000a900473ffffffffffffffffffffffffffffffffffffffff1673ffffffffffffffffffffffffffffffffffffffff16145b1561093557600160008381548110151561084f57fe5b906000526020600020906006020160050160006101000a81548160ff0219169083151502179055506000808381548110151561088757fe5b906000526020600020906006020160040154420390503373ffffffffffffffffffffffffffffffffffffffff166108fc6000858154811015156108c657fe5b90600052602060002090600602016003015483029081150290604051600060405180830381858888f19350505050158015610905573d6000803e3d6000fd5b506000808481548110151561091657fe5b906000526020600020906006020160040181905550600191505061093a565b600090505b919050565b60006001151560008381548110151561095457fe5b906000526020600020906006020160050160009054906101000a900460ff1615151415610a3a576000808381548110151561098b57fe5b9060005260206000209060060201905060008160050160006101000a81548160ff021916908315150217905550338160010160006101000a81548173ffffffffffffffffffffffffffffffffffffffff021916908373ffffffffffffffffffffffffffffffffffffffff1602179055504281600401819055507ffc18d4ecf81ee2447943bcee29d252e91361d81fb5dd02e84d0099003fa5760e60405160405180910390a16001915050610a3f565b600090505b919050565b600081815481101515610a5357fe5b90600052602060002090600602016000915090508060000160009054906101000a900473ffffffffffffffffffffffffffffffffffffffff16908060010160009054906101000a900473ffffffffffffffffffffffffffffffffffffffff1690806002018054600181600116156101000203166002900480601f016020809104026020016040519081016040528092919081815260200182805460018160011615610100020316600290048015610b4b5780601f10610b2057610100808354040283529160200191610b4b565b820191906000526020600020905b815481529060010190602001808311610b2e57829003601f168201915b5050505050908060030154908060040154908060050160009054906101000a900460ff16905086565b60c060405190810160405280600073ffffffffffffffffffffffffffffffffffffffff168152602001600073ffffffffffffffffffffffffffffffffffffffff1681526020016060815260200160008152602001600081526020016000151581525090565b828054600181600116156101000203166002900490600052602060002090601f016020900481019282601f10610c1a57805160ff1916838001178555610c48565b82800160010185558215610c48579182015b82811115610c47578251825591602001919060010190610c2c565b5b509050610c559190610c59565b5090565b610c7b91905b80821115610c77576000816000905550600101610c5f565b5090565b9056fea165627a7a72305820aed47f1ae6b0dd5ac0c5e865e1f2888446593879740981317071ffec1e70cdf30029",
  "source": "pragma solidity >=0.4.21 <0.6.0;\r\n\r\ncontract Renting {\r\n    struct Car {\r\n        address owner;\r\n        address rentedBy;\r\n        string description;\r\n        uint price;\r\n        uint rentingTime;\r\n        bool available;\r\n    }\r\n\r\n    Car[] public cars;\r\n\r\n    event CreatedCarEvent();\r\n    event CreatedRentEvent();\r\n\r\n    function getNumCars() public view returns (uint) {\r\n        return cars.length;\r\n    }\r\n\r\n    // returns owner address, car description, price, available\r\n    function getCar(uint pos) public view returns (address, string memory, uint, bool, address) {\r\n        Car storage c = cars[pos];\r\n        return (c.owner, c.description, c.price, c.available, c.rentedBy);\r\n    }\r\n\r\n    function addCar(string memory _description, uint _price) public returns (bool) {\r\n        Car memory car;\r\n\r\n        car.owner = msg.sender;\r\n        car.description = _description;\r\n        car.price = _price;\r\n        car.available = true;\r\n        car.rentingTime = 0;\r\n\r\n        cars.push(car);\r\n\r\n        emit CreatedCarEvent();\r\n        return true;\r\n    }\r\n\r\n    function rentCar(uint pos) public returns (bool) {\r\n        if (cars[pos].available == true) {\r\n            Car storage c = cars[pos];\r\n            c.available = false;\r\n            c.rentedBy = msg.sender;\r\n            c.rentingTime = now;\r\n            emit CreatedRentEvent();\r\n            return true;\r\n        }\r\n\r\n        return false;\r\n    }\r\n\r\n    function freeCar(uint pos) public payable returns (bool) {\r\n        if (cars[pos].available == false && cars[pos].rentedBy == msg.sender) {\r\n            cars[pos].available = true;\r\n            uint time = now - cars[pos].rentingTime;\r\n\r\n            //address(cars[pos].owner).transfer(time * cars[pos].price);\r\n            msg.sender.transfer(time * cars[pos].price);\r\n\r\n            cars[pos].rentingTime = 0;\r\n            return true;\r\n        }\r\n        return false;\r\n    }\r\n}",
  "sourcePath": "D:/Projs/RentCarBlockchain/contracts/Renting.sol",
  "compiler": {
    "name": "solc",
    "version": "0.5.0+commit.1d4f565a.Emscripten.clang"
  },
  "schemaVersion": "3.0.6",
  "updatedAt": "2019-04-06T21:55:25.364Z",
  "devdoc": {
    "methods": {}
  },
  "userdoc": {
    "methods": {}
  }
}